{
  "contractName": "Store",
  "abi": [
    {
      "constant": true,
      "inputs": [
        {
          "name": "",
          "type": "uint256"
        }
      ],
      "name": "creatorsList",
      "outputs": [
        {
          "name": "",
          "type": "bytes32"
        }
      ],
      "payable": false,
      "stateMutability": "view",
      "type": "function"
    },
    {
      "constant": true,
      "inputs": [
        {
          "name": "",
          "type": "address"
        }
      ],
      "name": "wallets",
      "outputs": [
        {
          "name": "",
          "type": "uint256"
        }
      ],
      "payable": false,
      "stateMutability": "view",
      "type": "function"
    },
    {
      "constant": true,
      "inputs": [
        {
          "name": "",
          "type": "uint256"
        }
      ],
      "name": "consumersList",
      "outputs": [
        {
          "name": "",
          "type": "bytes32"
        }
      ],
      "payable": false,
      "stateMutability": "view",
      "type": "function"
    },
    {
      "inputs": [
        {
          "name": "candidateNames1",
          "type": "bytes32[]"
        },
        {
          "name": "candidateNames2",
          "type": "bytes32[]"
        },
        {
          "name": "balance",
          "type": "uint256[]"
        }
      ],
      "payable": false,
      "stateMutability": "nonpayable",
      "type": "constructor"
    },
    {
      "anonymous": false,
      "inputs": [
        {
          "indexed": true,
          "name": "_from",
          "type": "address"
        },
        {
          "indexed": true,
          "name": "_to",
          "type": "address"
        },
        {
          "indexed": false,
          "name": "_value",
          "type": "uint256"
        }
      ],
      "name": "Transfer",
      "type": "event"
    },
    {
      "constant": false,
      "inputs": [
        {
          "name": "code",
          "type": "string"
        }
      ],
      "name": "buy",
      "outputs": [
        {
          "name": "success",
          "type": "bool"
        }
      ],
      "payable": true,
      "stateMutability": "payable",
      "type": "function"
    },
    {
      "constant": true,
      "inputs": [
        {
          "name": "code",
          "type": "string"
        },
        {
          "name": "mname",
          "type": "bytes32"
        },
        {
          "name": "cost",
          "type": "uint256"
        }
      ],
      "name": "addMedia",
      "outputs": [
        {
          "name": "",
          "type": "bytes32"
        },
        {
          "name": "",
          "type": "uint256"
        }
      ],
      "payable": false,
      "stateMutability": "view",
      "type": "function"
    },
    {
      "constant": true,
      "inputs": [],
      "name": "allCreators",
      "outputs": [
        {
          "name": "",
          "type": "bytes32[]"
        }
      ],
      "payable": false,
      "stateMutability": "view",
      "type": "function"
    },
    {
      "constant": true,
      "inputs": [],
      "name": "allConsumers",
      "outputs": [
        {
          "name": "",
          "type": "bytes32[]"
        }
      ],
      "payable": false,
      "stateMutability": "view",
      "type": "function"
    },
    {
      "constant": true,
      "inputs": [
        {
          "name": "personAddress",
          "type": "address"
        }
      ],
      "name": "getWallet",
      "outputs": [
        {
          "name": "",
          "type": "uint256"
        }
      ],
      "payable": false,
      "stateMutability": "view",
      "type": "function"
    },
    {
      "constant": true,
      "inputs": [
        {
          "name": "creatorAddress",
          "type": "address"
        },
        {
          "name": "index",
          "type": "uint256"
        }
      ],
      "name": "getMedia",
      "outputs": [
        {
          "name": "",
          "type": "string"
        },
        {
          "name": "",
          "type": "bytes32"
        },
        {
          "name": "",
          "type": "uint256"
        }
      ],
      "payable": false,
      "stateMutability": "view",
      "type": "function"
    },
    {
      "constant": true,
      "inputs": [
        {
          "name": "code",
          "type": "string"
        },
        {
          "name": "consumerAddress",
          "type": "address"
        }
      ],
      "name": "checkMediaForConsumer",
      "outputs": [
        {
          "name": "",
          "type": "bool"
        }
      ],
      "payable": false,
      "stateMutability": "view",
      "type": "function"
    },
    {
      "constant": true,
      "inputs": [
        {
          "name": "creatorAddress",
          "type": "address"
        }
      ],
      "name": "getMediaCount",
      "outputs": [
        {
          "name": "",
          "type": "uint256"
        }
      ],
      "payable": false,
      "stateMutability": "view",
      "type": "function"
    },
    {
      "constant": false,
      "inputs": [
        {
          "name": "amount",
          "type": "uint256"
        }
      ],
      "name": "addToWallet",
      "outputs": [
        {
          "name": "success",
          "type": "bool"
        }
      ],
      "payable": true,
      "stateMutability": "payable",
      "type": "function"
    },
    {
      "constant": true,
      "inputs": [
        {
          "name": "code",
          "type": "string"
        }
      ],
      "name": "validMedia",
      "outputs": [
        {
          "name": "",
          "type": "bool"
        }
      ],
      "payable": false,
      "stateMutability": "view",
      "type": "function"
    }
  ],
  "bytecode": "0x60806040523480156200001157600080fd5b50604051620016b2380380620016b283398101806040528101908080518201929190602001805182019291906020018051820192919050505082600590805190602001906200006292919062000085565b5081600690805190602001906200007b92919062000085565b5050505062000105565b828054828255906000526020600020908101928215620000ca579160200282015b82811115620000c9578251829060001916905591602001919060010190620000a6565b5b509050620000d99190620000dd565b5090565b6200010291905b80821115620000fe576000816000905550600101620000e4565b5090565b90565b61159d80620001156000396000f3006080604052600436106100c5576000357c0100000000000000000000000000000000000000000000000000000000900463ffffffff16806304d0a647146100ca57806307863d0f146101215780630ec45411146101c25780631b422df61461029e57806348140269146102e7578063492cc7691461031f578063651cd70f14610393578063770da1e4146103ea57806389b08f111461048e5780638e41f1f1146104e557806392a4280b1461052e5780639e12cf641461059a578063f1f89cea14610606575b600080fd5b3480156100d657600080fd5b5061010b600480360381019080803573ffffffffffffffffffffffffffffffffffffffff169060200190929190505050610687565b6040518082815260200191505060405180910390f35b34801561012d57600080fd5b506101a8600480360381019080803590602001908201803590602001908080601f0160208091040260200160405190810160405280939291908181526020018383808284378201915050505050509192919290803573ffffffffffffffffffffffffffffffffffffffff1690602001909291905050506106d0565b604051808215151515815260200191505060405180910390f35b3480156101ce57600080fd5b5061020d600480360381019080803573ffffffffffffffffffffffffffffffffffffffff16906020019092919080359060200190929190505050610879565b60405180806020018460001916600019168152602001838152602001828103825285818151815260200191508051906020019080838360005b83811015610261578082015181840152602081019050610246565b50505050905090810190601f16801561028e5780820380516001836020036101000a031916815260200191505b5094505050505060405180910390f35b3480156102aa57600080fd5b506102c960048036038101908080359060200190929190505050610a70565b60405180826000191660001916815260200191505060405180910390f35b61030560048036038101908080359060200190929190505050610a93565b604051808215151515815260200191505060405180910390f35b610379600480360381019080803590602001908201803590602001908080601f0160208091040260200160405190810160405280939291908181526020018383808284378201915050505050509192919290505050610aeb565b604051808215151515815260200191505060405180910390f35b34801561039f57600080fd5b506103d4600480360381019080803573ffffffffffffffffffffffffffffffffffffffff169060200190929190505050610f0c565b6040518082815260200191505060405180910390f35b3480156103f657600080fd5b50610469600480360381019080803590602001908201803590602001908080601f0160208091040260200160405190810160405280939291908181526020018383808284378201915050505050509192919290803560001916906020019092919080359060200190929190505050610f5b565b6040518083600019166000191681526020018281526020019250505060405180910390f35b34801561049a57600080fd5b506104cf600480360381019080803573ffffffffffffffffffffffffffffffffffffffff1690602001909291905050506112b1565b6040518082815260200191505060405180910390f35b3480156104f157600080fd5b50610510600480360381019080803590602001909291905050506112c9565b60405180826000191660001916815260200191505060405180910390f35b34801561053a57600080fd5b506105436112ec565b6040518080602001828103825283818151815260200191508051906020019060200280838360005b8381101561058657808201518184015260208101905061056b565b505050509050019250505060405180910390f35b3480156105a657600080fd5b506105af611348565b6040518080602001828103825283818151815260200191508051906020019060200280838360005b838110156105f25780820151818401526020810190506105d7565b505050509050019250505060405180910390f35b34801561061257600080fd5b5061066d600480360381019080803590602001908201803590602001908080601f01602080910402602001604051908101604052809392919081815260200183838082843782019150505050505091929192905050506113a4565b604051808215151515815260200191505060405180910390f35b6000600160008373ffffffffffffffffffffffffffffffffffffffff1673ffffffffffffffffffffffffffffffffffffffff168152602001908152602001600020549050919050565b600080600090505b600460008473ffffffffffffffffffffffffffffffffffffffff1673ffffffffffffffffffffffffffffffffffffffff1681526020019081526020016000206000018054905081101561086d57836040518082805190602001908083835b60208310151561075b5780518252602082019150602081019050602083039250610736565b6001836020036101000a038019825116818451168082178552505050505050905001915050604051809103902060001916600460008573ffffffffffffffffffffffffffffffffffffffff1673ffffffffffffffffffffffffffffffffffffffff168152602001908152602001600020600001828154811015156107db57fe5b9060005260206000200160405180828054600181600116156101000203166002900480156108405780601f1061081e576101008083540402835291820191610840565b820191906000526020600020905b81548152906001019060200180831161082c575b505091505060405180910390206000191614156108605760019150610872565b80806001019150506106d8565b600091505b5092915050565b60606000806000600360008773ffffffffffffffffffffffffffffffffffffffff1673ffffffffffffffffffffffffffffffffffffffff168152602001908152602001600020600001858154811015156108cf57fe5b90600052602060002001905080600282604051808280546001816001161561010002031660029004801561093a5780601f1061091857610100808354040283529182019161093a565b820191906000526020600020905b815481529060010190602001808311610926575b505091505090815260200160405180910390206001015460028360405180828054600181600116156101000203166002900480156109af5780601f1061098d5761010080835404028352918201916109af565b820191906000526020600020905b81548152906001019060200180831161099b575b5050915050908152602001604051809103902060020154828054600181600116156101000203166002900480601f016020809104026020016040519081016040528092919081815260200182805460018160011615610100020316600290048015610a5b5780601f10610a3057610100808354040283529160200191610a5b565b820191906000526020600020905b815481529060010190602001808311610a3e57829003601f168201915b50505050509250935093509350509250925092565b600581815481101515610a7f57fe5b906000526020600020016000915090505481565b600081600160003373ffffffffffffffffffffffffffffffffffffffff1673ffffffffffffffffffffffffffffffffffffffff1681526020019081526020016000206000828254019250508190555060019050919050565b60008060006002846040518082805190602001908083835b602083101515610b285780518252602082019150602081019050602083039250610b03565b6001836020036101000a03801982511681845116808217855250505050505090500191505090815260200160405180910390206002015491506002846040518082805190602001908083835b602083101515610b995780518252602082019150602081019050602083039250610b74565b6001836020036101000a038019825116818451168082178552505050505050905001915050908152602001604051809103902060000160009054906101000a900473ffffffffffffffffffffffffffffffffffffffff1690506002846040518082805190602001908083835b602083101515610c2a5780518252602082019150602081019050602083039250610c05565b6001836020036101000a038019825116818451168082178552505050505050905001915050908152602001604051809103902060020154600160003373ffffffffffffffffffffffffffffffffffffffff1673ffffffffffffffffffffffffffffffffffffffff168152602001908152602001600020541015610cb05760009250610f05565b81600160003373ffffffffffffffffffffffffffffffffffffffff1673ffffffffffffffffffffffffffffffffffffffff1681526020019081526020016000206000828254039250508190555081600160008373ffffffffffffffffffffffffffffffffffffffff1673ffffffffffffffffffffffffffffffffffffffff168152602001908152602001600020600082825401925050819055508073ffffffffffffffffffffffffffffffffffffffff163373ffffffffffffffffffffffffffffffffffffffff167fddf252ad1be2c89b69c2b068fc378daa952ba7f163c4a11628f55a4df523b3ef846040518082815260200191505060405180910390a3600460003373ffffffffffffffffffffffffffffffffffffffff1673ffffffffffffffffffffffffffffffffffffffff168152602001908152602001600020600001849080600181540180825580915050906001820390600052602060002001600090919290919091509080519060200190610e2c9291906114cc565b50506002846040518082805190602001908083835b602083101515610e665780518252602082019150602081019050602083039250610e41565b6001836020036101000a03801982511681845116808217855250505050505090500191505090815260200160405180910390206003013390806001815401808255809150509060018203906000526020600020016000909192909190916101000a81548173ffffffffffffffffffffffffffffffffffffffff021916908373ffffffffffffffffffffffffffffffffffffffff16021790555050600192505b5050919050565b6000600360008373ffffffffffffffffffffffffffffffffffffffff1673ffffffffffffffffffffffffffffffffffffffff168152602001908152602001600020600001805490509050919050565b600080610f67856113a4565b1515610f7257600080fd5b600360003373ffffffffffffffffffffffffffffffffffffffff1673ffffffffffffffffffffffffffffffffffffffff168152602001908152602001600020600001859080600181540180825580915050906001820390600052602060002001600090919290919091509080519060200190610fef9291906114cc565b5050600085908060018154018082558091505090600182039060005260206000200160009091929091909150908051906020019061102e9291906114cc565b5050336002866040518082805190602001908083835b6020831015156110695780518252602082019150602081019050602083039250611044565b6001836020036101000a038019825116818451168082178552505050505050905001915050908152602001604051809103902060000160006101000a81548173ffffffffffffffffffffffffffffffffffffffff021916908373ffffffffffffffffffffffffffffffffffffffff160217905550836002866040518082805190602001908083835b60208310151561111657805182526020820191506020810190506020830392506110f1565b6001836020036101000a03801982511681845116808217855250505050505090500191505090815260200160405180910390206001018160001916905550826002866040518082805190602001908083835b60208310151561118d5780518252602082019150602081019050602083039250611168565b6001836020036101000a0380198251168184511680821785525050505050509050019150509081526020016040518091039020600201819055506002856040518082805190602001908083835b6020831015156111ff57805182526020820191506020810190506020830392506111da565b6001836020036101000a0380198251168184511680821785525050505050509050019150509081526020016040518091039020600101546002866040518082805190602001908083835b60208310151561126e5780518252602082019150602081019050602083039250611249565b6001836020036101000a03801982511681845116808217855250505050505090500191505090815260200160405180910390206002015491509150935093915050565b60016020528060005260406000206000915090505481565b6006818154811015156112d857fe5b906000526020600020016000915090505481565b6060600580548060200260200160405190810160405280929190818152602001828054801561133e57602002820191906000526020600020905b81546000191681526020019060010190808311611326575b5050505050905090565b6060600680548060200260200160405190810160405280929190818152602001828054801561139a57602002820191906000526020600020905b81546000191681526020019060010190808311611382575b5050505050905090565b600080600090505b6000805490508110156114c157826040518082805190602001908083835b6020831015156113ef57805182526020820191506020810190506020830392506113ca565b6001836020036101000a03801982511681845116808217855250505050505090500191505060405180910390206000191660008281548110151561142f57fe5b9060005260206000200160405180828054600181600116156101000203166002900480156114945780601f10611472576101008083540402835291820191611494565b820191906000526020600020905b815481529060010190602001808311611480575b505091505060405180910390206000191614156114b457600091506114c6565b80806001019150506113ac565b600191505b50919050565b828054600181600116156101000203166002900490600052602060002090601f016020900481019282601f1061150d57805160ff191683800117855561153b565b8280016001018555821561153b579182015b8281111561153a57825182559160200191906001019061151f565b5b509050611548919061154c565b5090565b61156e91905b8082111561156a576000816000905550600101611552565b5090565b905600a165627a7a72305820d67bbfa475b707dd571ff21effea830b665ceda4a4c3c6f44603e4d68c4dadbe0029",
  "source": "pragma solidity ^0.4.18; //We have to specify what version of the compiler this code will use\n\ncontract Store {\n\n  // We use the struct datatype to store the voter information.\n  struct Media {\n    address creator;\n    bytes32 title;\n    uint price;\n    address[] consumers;\n  }\n\n  struct Creator {\n    string[] creatorMediaList;\n  }\n\n  struct Consumer {\n    string[] consumerMediaList;\n  }\n\n  string[] allMedia;\n\n  mapping (address => uint) public wallets;\n  mapping (string => Media) mediaStructs;\n  mapping (address => Creator) creatorStructs;\n  mapping (address => Consumer) consumerStructs;\n  bytes32[] public creatorsList;\n  bytes32[] public consumersList;\n\n  event Transfer(address indexed _from, address indexed _to, uint256 _value);\n\n  /* When the contract is deployed on the blockchain, we will initialize\n   the total number of tokens for sale, cost per token and all the candidates\n   */\n  function Store(bytes32[] candidateNames1, bytes32[] candidateNames2, uint[] balance) public {\n    creatorsList = candidateNames1;\n    consumersList = candidateNames2;\n  }\n\n\n  function buy(string code) payable public returns(bool success) {\n    uint amount = mediaStructs[code].price;\n    address receiver = mediaStructs[code].creator;\n    if (wallets[msg.sender] < mediaStructs[code].price) return false;\n    wallets[msg.sender] -= amount;\n    wallets[receiver] += amount;\n    Transfer(msg.sender, receiver, amount);\n    consumerStructs[msg.sender].consumerMediaList.push(code);\n    mediaStructs[code].consumers.push(msg.sender);\n    return true;\n  }\n\n  function addMedia(string code, bytes32 mname, uint cost) view public returns (bytes32, uint) {\n    require(validMedia(code));\n    creatorStructs[msg.sender].creatorMediaList.push(code);\n    allMedia.push(code);\n    mediaStructs[code].creator = msg.sender;\n    mediaStructs[code].title = mname;\n    mediaStructs[code].price = cost;\n    return (mediaStructs[code].title, mediaStructs[code].price);\n  }\n\n  function allCreators() view public returns (bytes32[]) {\n    return creatorsList;\n  }\n\n  function allConsumers() view public returns (bytes32[]) {\n    return consumersList;\n  }\n\n  function getWallet(address personAddress) view public returns (uint) {\n    return wallets[personAddress];\n  }\n\n\n  function getMedia(address creatorAddress, uint index) view public returns (string, bytes32, uint) {\n    string url = creatorStructs[creatorAddress].creatorMediaList[index];\n    return (url, mediaStructs[url].title, mediaStructs[url].price);\n  }\n\n  function checkMediaForConsumer(string code, address consumerAddress) view public returns (bool) {\n    for (uint i = 0; i < consumerStructs[consumerAddress].consumerMediaList.length; i++){\n      if (keccak256(consumerStructs[consumerAddress].consumerMediaList[i]) == keccak256(code)) {\n        return true;\n      }\n    }\n    return false;\n  }\n\n  function getMediaCount(address creatorAddress) view public returns (uint) {\n    return creatorStructs[creatorAddress].creatorMediaList.length;\n  }\n\n  function addToWallet(uint amount) payable public returns (bool success) {\n    wallets[msg.sender] += amount;\n    return true;\n  }\n\n  function validMedia(string code) view public returns (bool) {\n    for(uint i = 0; i < allMedia.length; i++) {\n      if (keccak256(allMedia[i]) == keccak256(code)){\n        return false;\n      }\n    }\n    return true;\n  }\n\n}\n",
  "sourcePath": "/Users/sspdev/Downloads/mediaStore/contracts/Store.sol",
  "compiler": {
    "name": "solc",
    "version": "0.4.24+commit.e67f0147.Emscripten.clang"
  },
  "schemaVersion": "2.0.1",
  "updatedAt": "2018-12-15T07:47:42.378Z"
}